:100000000C9452000C9464000C9464000C946400F2
:100010000C9464000C9464000C9464000C946400D0
:100020000C9464000C9464000C9464000C946400C0
:100030000C9464000C9464000C9464000C946400B0
:100040000C94C7000C9464000C9464000C9464003D
:100050000C9464000C9464000C9464000C94640090
:100060000C9464000C94640000000000250028003B
:100070002B0000000000240027002A0004040404D0
:100080000404040402020202020203030303030342
:10009000010204081020408001020408102001021F
:1000A0000408102011241FBECFEFD8E0DEBFCDBF63
:1000B00021E0A0E0B1E001C01D92A930B207E1F754
:1000C0000E9411010C948E010C940000CF93DF93D9
:1000D00090E0FC01E057FF4F2491FC01E458FF4FF2
:1000E0008491882361F190E0880F991FFC01EE58FC
:1000F000FF4FC591D491FC01E859FF4FA591B491F0
:10010000611109C09FB7F894888120958223888364
:10011000EC912E230BC0623061F49FB7F894888174
:10012000322F309583238883EC912E2B2C939FBF05
:1001300006C08FB7F894E8812E2B28838FBFDF91FC
:10014000CF9108953FB7F8948091050190910601F1
:10015000A0910701B091080126B5A89B05C02F3FCB
:1001600019F00196A11DB11D3FBFBA2FA92F982FDD
:100170008827820F911DA11DB11DBC01CD0142E058
:10018000660F771F881F991F4A95D1F708951F9210
:100190000F920FB60F9211242F933F938F939F933B
:1001A000AF93BF938091010190910201A09103014F
:1001B000B09104013091000123E0230F2D3720F48A
:1001C0000196A11DB11D05C026E8230F0296A11DB1
:1001D000B11D209300018093010190930201A0932F
:1001E0000301B09304018091050190910601A09153
:1001F0000701B09108010196A11DB11D8093050171
:1002000090930601A0930701B0930801BF91AF91AD
:100210009F918F913F912F910F900FBE0F901F9044
:100220001895789484B5826084BD84B5816084BD5E
:1002300085B5826085BD85B5816085BD80916E0084
:10024000816080936E0010928100809181008260B5
:1002500080938100809181008160809381008091F2
:1002600080008160809380008091B10084608093E1
:10027000B1008091B00081608093B00080917A00DD
:10028000846080937A0080917A00826080937A0003
:1002900080917A00816080937A0080917A008068F2
:1002A00080937A001092C10061E086E00E946600AF
:1002B00061E087E00E94660060E088E00E946600DE
:1002C000C0E0D0E00E94A2004B015C0188EEC82E85
:1002D00083E0D82EE12CF12C0E94A200DC01CB019E
:1002E00088199909AA09BB09883E9340A105B1055F
:1002F00098F321E0C21AD108E108F10888EE880ECF
:1003000083E0981EA11CB11CC114D104E104F104C6
:1003100019F72097B9F20E940000D4CFF894FFCFCC
:00000001FF
